:1000000096C0BAC0E6C0B8C061C8B6C0B5C0B4C07A
:10001000B3C0B2C0B1C0B0C0AFC0B4C5D0C52A2B48
:1000200028000000000000000000000000000000A8
:100030000029000000002C9EB4A0A1A2A434A6A711
:10004000A5AE362D3738271E1F2021222324252632
:10005000B333B62EB7B89F8485868788898A8B8C00
:100060008D8E8F909192939495969798999A9B9C48
:100070009D2F3130A3AD350405060708090A0B0C86
:100080000D0E0F101112131415161718191A1B1C28
:100090001DAFB1B0B505010906A101050719E02999
:1000A000E715002501750195088102950175082560
:1000B00065190029658100C0090222000101008044
:1000C00032090400000103010100092101010001BE
:1000D0002223000705810308000A12011001000015
:1000E0000008C016DB2700010102000110034400D4
:1000F0006900670069004B00650079001C0364001B
:100100006900670069007300740075006D0070007D
:100110002E0063006F006D0004030904010204084F
:100120001020010101010101003800373E051124B2
:100130001FBECFE5D2E0DEBFCDBF10E0A0E6B0E04D
:10014000E0E8F2E102C005900D92AE3FB107D9F7A9
:1001500021E0AEEFB0E001C01D92A93BB207E1F78C
:1001600011E0CEE2D1E003C02297FE0183D8CC3269
:10017000D107D1F798D782C843CFA82FB92F80E0F5
:1001800090E041E050EA609530E009C02D9182276F
:100190009795879510F084279527305EC8F36F5F99
:1001A000A8F30895EADF8D939D930895A6E088272C
:1001B0009927AA9569F00197E1F3B399FCCFB39B16
:1001C000FECF81E09927A6B3019611F0A871D9F767
:1001D0000895CF93CFB7CF93C395B39BE9F7B39B64
:1001E0000BC0B39B09C0B39B07C0B39B05C0B39BB7
:1001F00003C0B39B01C0D5C00F92DF93C0919C0197
:10020000DD27CD55DE4F012EB39B03C0DF910F904C
:10021000E6CF2F930F931F934F932FEF4F6F06B39C
:1002200003FB20F95F933F9350E03BE065C016B3BA
:100230000126502953FDC89556B3012703FB25F924
:100240002F7306B3B1F05027102713FB26F906B21F
:100250002230F0F000C016B3012703FB27F9012676
:10026000502906B22430E8F54F77206816B3000015
:10027000F6CF50274F7D206206B2102F000000C03D
:1002800006B300265029102713FB26F906B2E2CF49
:100290004F7B06B3206400C0DACF012650291871C5
:1002A00006B269F14E7F2160012F16B328C00026E7
:1002B00050294D7F06B22260102F29C001265029F7
:1002C0004B7F06B22460012F2DC016B301265029A2
:1002D000477F2860000006B22EC04F7E06B3206123
:1002E00030C0422706B3499300265029102706B292
:1002F0004FEF13FB20F9297F16B379F2187159F1EA
:100300000126502906B2012703FB21F9237F06B3FA
:1003100071F2002650293150D0F006B2102713FB9D
:1003200022F9277E16B351F201265029012703FB3B
:1003300006B223F92F7C49F2000006B3102713FB05
:1003400024F90026502906B22F7939F270CF10E235
:100350001ABF002719C03B503195C31BD04010E293
:100360001ABF0881033C09F10B34F9F020919A017E
:100370001981110F1213EDCF4A81441F093651F133
:100380000D3211F0013E29F70093A1013F915F91D9
:100390004F911F910F912F91DF910F90CAB7C5FD1B
:1003A0001BCFCF91CFBFCF9118952091A1012223D0
:1003B00069F310919F01112379F534307AF130936C
:1003C0009F0120939B0110919C013BE0311B3093D6
:1003D0009C0124C000919F010130F4F40AE54F70A4
:1003E00049F43091670034FD1AC000936700C3E8F8
:1003F000D1E019C030918E0134FD11C000938E01FF
:10040000CFE8D1E010C0052710E000C021C00527CB
:1004100010E0C89508BB14C03AE501C032ED032EC8
:10042000C0E0D0E032E017B31861C39A08B317BB3D
:1004300058E120E84FEF20FF052708BB27951795C7
:100440001C3F28F700004552B0F720FF05272795ED
:1004500008BB17951C3FB8F629913A9561F7077EBE
:100460001091A001110F08BBC250D04011F01093A1
:100470009A0110E21ABF086017B3177E402F477E1B
:1004800054E05A95F1F708BB17BB48BB7FCF90915A
:1004900004018091030161E0981301C060E08AE2E9
:1004A00091E00AC3CF93DF93C82F833090F18AE2A3
:1004B00091E004D3D82F8AE291E000D3D23111F534
:1004C000843301F58AE291E0F9D22091040130E011
:1004D0002F5F3F4F2F70332790910301921791F0B8
:1004E000E0910401F0E0EE0FFF1FEB5FFE4F808311
:1004F000E0910401F0E0EE0FFF1FEB5FFE4F118271
:1005000020930401C33099F18AE291E0D7D2C1501F
:10051000F9CF823029F58AE291E0D0D2C82F8AE261
:1005200091E0CCD22091040130E02F5F3F4F2F703B
:100530003327909103019217D1F0E0910401F0E08C
:10054000EE0FFF1FEB5FFE4FC083E0910401F0E070
:10055000EE0FFF1FEB5FFE4F81832093040107C066
:10056000882329F08AE291E0DF91CF91A7C2DF9141
:10057000CF9108958F929F92AF92BF92CF92DF92C8
:10058000EF92FF92CF93DF9300D000D0CDB7DEB7CC
:100590006B017C01E2D54B015C011C141D041E049F
:1005A0001F049CF4DAD5C61AD70AE80AF90AC80C5F
:1005B000D91CEA1CFB1C69837A838B839C8316D429
:1005C00069817A818B819C81E6CF0F900F900F908B
:1005D0000F90DF91CF91FF90EF90DF90CF90BF9081
:1005E000AF909F908F9008950F931F93CF93DF93B9
:1005F00000D0CDB7DEB78C0180918E0184FD0CC098
:100600004A836983F3D380E990E50197F1F700C04D
:10061000000069814A81F0CFF8014283638362E080
:10062000C80102960F900F90DF91CF911F910F910B
:10063000B9C3CF93DF93EC01D7DF40E060E0CE0198
:10064000DF91CF91D1CFE62FF0E0EA5EFF4F6491CA
:10065000262F30E0220F232F221F330B232B11F0E4
:1006600040E201C040E06F77E4DF81E090E0089570
:10067000FC0187E291E090939E0180939D0180812F
:100680008076803231F481818A3019F483818093BD
:10069000290180E0089561E081E0BBD560ED77E05D
:1006A00080E090E067DF48E064E085E291E0C1DF50
:1006B00064EC79E080E090E05DDF40E068E285E2B4
:1006C00091E0B7DF68EE73E080E090E053DF40E058
:1006D00069E285E291E0ADDF64EF71E080E090E0F7
:1006E00049DF60E081E095C561E081E092D560ED91
:1006F00077E080E090E03EDF48E065E185E291E070
:1007000098DF6CED75E080E090E034DF68E670E043
:1007100085E291E0C1D464EF71E080E090E02ADFEF
:1007200040E068E285E291E084DF68EB7BE080E016
:1007300090E020DF60E081E06CC5CF93DF93EC01B7
:1007400061E081E066D560ED77E080E090E012DF67
:1007500048E065E185E291E06CDF6CED75E080E0FA
:1007600090E008DFBE0185E291E096D464EF71E08D
:1007700080E090E0FFDE40E068E285E291E059DF52
:1007800068EB7BE080E090E0F5DE60E081E0DF9107
:10079000CF913FC58FE690E0D0CF88E890E0CDCFF5
:1007A0008DE990E0CACF8BED90E0C7CFCF93DF9378
:1007B0009091030180910401981709F4D0C0E09151
:1007C0000301F0E0EE0FFF1FEB5FFE4FC081E091F1
:1007D0000301F0E0EE0FFF1FEB5FFE4FD181809130
:1007E000030190E001968F7099278093030161E0E7
:1007F00081E00FD5C130A1F480910201882371F00E
:100800008FE98D0F8A3110F463EA05C08FEB8D0FED
:100810008A3120F463EC6D0F41E006C06D2F13C0E8
:10082000C23051F440E06AE285E291E002DF6EE11D
:1008300070E080E090E089C0C33011F440E00AC06D
:10084000C43029F460E285E291E0FDDEF0CFC630ED
:1008500019F442E068E2E8CFC73051F58091020117
:10086000811121C081E08093020177D46093FE0062
:100870007093FF00809300019093010160E081E09C
:10088000C8D462E370E080E090E074DE61E081E073
:10089000C0D462E370E080E090E06CDE41E060E0B4
:1008A00085E291E0A1DE6AE070E080E090E04DC07A
:1008B000C83021F5809102018823A9F3109202012A
:1008C0001092FE001092FF001092000110920101A0
:1008D00040E060E085E291E087DE60E081E099D46D
:1008E00062E370E080E090E045DE61E081E091D479
:1008F00062E370E080E090E03DDED5CFC03111F4DE
:10090000CADE24C0C13111F4EFDE20C0C23111F4BF
:1009100041DF1CC0C33111F440DF18C0C43111F4F1
:100920003FDF14C0C53111F43EDF10C060E081E04C
:1009300070D462E370E080E090E01CDE61E081E072
:1009400068D462E370E080E090E014DE60E081E073
:1009500060D465E070E080E090E00CDE29CFDF91AC
:10096000CF9108950F931F93809102018823B1F1D5
:10097000F4D30091FE001091FF002091000130910E
:100980000101601B710B820B930B6133754781056D
:10099000910520F140E060E085E291E025DE1092D3
:1009A00002011092FE001092FF00109200011092BE
:1009B000010105E010E061E081E02BD464E670E025
:1009C00080E090E0D7DD60E081E023D464E670E071
:1009D00080E090E0CFDD0150110969F71F910F9180
:1009E0000895CF93DF9361E081E0DCD360E081E0A4
:1009F00010D463E28AE291E05DD062E572E08AE2BF
:100A000091E05DD067E472E08AE291E05DD064EF4E
:100A100071E080E090E0AEDDC3E0D0E061E081E035
:100A2000F8D364E670E080E090E0A4DD60E081E06F
:100A3000F0D364E670E080E090E09CDD219771F7F0
:100A4000109202011092FE001092FF00109200011D
:100A500010920101DF91CF9108953BD0A7DE82DF94
:100A600080910201882329F041E060E085E291E075
:100A7000BBDD6AE070E080E090E07CCD88EF90E044
:100A80009093260180932501F894BB9A27EA86E982
:100A90009CE0215080409040E1F700C00000BB98EE
:100AA000B9D27894109228011092270162E087E26F
:100AB00091E078C1862F1EC0862F35C04AC0709342
:100AC0002C0160932B01089570932E0160932D01EA
:100AD000089580912B0190912C01892B51F0759BE9
:100AE00008C04DD0882329F0E0912B01F0912C0112
:100AF00009940895109253011092540110925201DA
:100B0000109230011092310110922F0180937701E1
:100B100087B3856087BBC29AC09AB89888EA8DB9B6
:100B200080EF8EB9089590912F019032E1F3E0911A
:100B30003101F0E0EE5CFE4F8083809131018F5FE8
:100B40008F718093310180912F018F5F80932F01EE
:100B50000895809152018823E1F3E0915301F0E080
:100B6000EB5AFE4F8081909153019F5F9F7190934C
:100B700053019091520191509093520108958091A8
:100B8000520108951F920F920FB60F9211248F9366
:100B90001092760110927501B898B29B02C0B09B7A
:100BA000FCCFB09902C088EF01C088EA8DB980EF10
:100BB0008EB98F910F900FBE0F901F9018951F92B6
:100BC0000F920FB60F9211242F933F934F935F9381
:100BD0006F937F938F939F93AF93BF93EF93FF9305
:100BE00080917501909176018230910509F459C088
:100BF00028F4009761F0019779F185C08430910560
:100C000009F458C030F1059709F45DC07CC08FB17C
:100C1000882331F08FB186959091770189133EC07A
:100C2000789B67C0E0912B01F0912C01309739F04F
:100C300080915201882319F0809152010995E09129
:100C40002D01F0912E01309709F0099581E090E097
:100C500052C08FB1811122C080912F018823D1F021
:100C6000E0913001F0E0EE5CFE4F80818FB9809121
:100C700030018F5F8F718093300180912F018150FF
:100C800080932F0182E090E090937601809375012C
:100C9000B89A17C0B8981FB88EE78EB988EA8DB990
:100CA00010C083E090E09093760180937501B8982E
:100CB0001FB827C085E090E090937601809375017E
:100CC000B89880E71FC080915201803290F4E09183
:100CD00054018FB1F0E0EB5AFE4F808380915401B4
:100CE0008F5F8F7180935401809152018F5F809349
:100CF000520184E090E090937601809375011FB8D3
:100D0000B89A8EE78EB9FF91EF91BF91AF919F9105
:100D10008F917F916F915F914F913F912F910F90A4
:100D20000FBE0F901F901895DF92EF92FF920F93D6
:100D30001F93CF93DF93C8E0D0E0F12C80E8E82E3A
:100D4000DF2CDE0CD1BE32DA8C01043389E01807C7
:100D50000CF4FD2CE694219799F78FEF8F0D81BF4E
:100D6000CF2DD0E0219681B790E0C817D9078CF03D
:100D70001DDA8453994097FF03C09195819591099D
:100D80008017910714F4F1B68C0181B78F5F81BF92
:100D9000EACFF1BEDF91CF911F910F91FF90EF90BD
:100DA000DF900895CF93C62F20918E0124FF07C0B6
:100DB00020918F0138E8232720938F0103C02AE573
:100DC00020938E01DC01E0E9F1E09C2F9E0F8D91D4
:100DD0008193892F8E1B1816D4F36C2F80E991E034
:100DE000E1D9CC5FC0938E01CF910895CF93DF936B
:100DF00080919F01835087FDA8C090919C01209114
:100E00009B012D3209F09FC0883009F09CC0CCE0D6
:100E1000D0E0C91BD109CD55DE4F83EC809383010F
:100E20008AE580936700109279018881807619F0B5
:100E3000CE011EDC7FC09A8110928C0189818111C4
:100E400006C010928D012CE831E082E06FC0853041
:100E500019F49093A00167C0863009F04EC08B81D1
:100E6000813041F48AED90E090939E0180939D0142
:100E700082E13FC0823041F488EB90E090939E0184
:100E800080939D0182E235C08330F1F4911108C056
:100E900088E191E090939E0180939D0184E029C0B8
:100EA000913041F48CEF90E090939E0180939D01EE
:100EB0008CE11FC09230E1F48CEE90E090939E01A3
:100EC00080939D0180E115C0813241F48AEC90E06D
:100ED00090939E0180939D0189E00BC0823241F482
:100EE00085E990E090939E0180939D0183E201C08B
:100EF00080E090E4909379011DC0883069F08930DA
:100F000019F49093A2010FC08A3049F08B3059F444
:100F10008BE480938F0107C022EA31E002C02CE805
:100F200031E081E003C02CE831E080E030939E01A5
:100F300020939D019F81911104C09E81981708F410
:100F4000892F8093660010929F018091670084FF33
:100F500046C0809166008F3F09F441C0C82F893098
:100F600008F0C8E08C1B809366008091830198E8AC
:100F7000892780938301CC2331F120919D01309109
:100F80009E018091790186FF0BC0A4E8B1E0F901D0
:100F90008C2F8A0F94919D9331968A13FBCF09C0B1
:100FA000D901E4E8F1E08C2F8E0F9D9191938E137F
:100FB000FCCF8FEF8C0F90E00196820F931F9093E0
:100FC0009E0180939D016C2F84E891E0EBD8CC5F6B
:100FD000CC3019F08FEF80936600C093670084E1F6
:100FE00096B3987131F48150D9F71092A001109204
:100FF0009A01C1E08111C0E0809178018C1739F02D
:10100000C11103C0F89490DE7894C0937801DF9109
:10101000CF910895AC9A8BB780628BBF8BE480939D
:101020008F018AE580938E0108950F931F93CF93CC
:10103000DF93EC018B01F80161918F01662341F090
:10104000E881F9810190F081E02DCE010995F3CF7F
:10105000DF91CF911F910F910895EF92FF920F931F
:101060001F93CF93DF937C018A01EB01060F171FBB
:10107000C017D10751F06991D701ED91FC91019012
:10108000F081E02DC7010995F3CFDF91CF911F913A
:101090000F91FF90EF900895DC01ED91FC9102809B
:1010A000F381E02D099465D09CDCD7DCFECF83B7BB
:1010B000887F83BF8AB58C7F81608ABD83B7877F35
:1010C00083BF83B7887F836083BF089578941F921E
:1010D0000F920FB60F9211242F933F938F939F93EC
:1010E000AF93BF9380917B0190917C01A0917D0192
:1010F000B0917E0130917A012CE7230F2D3728F033
:101100002FEF230F0196A11DB11D20937A0180932B
:101110007B0190937C01A0937D01B0937E0180912F
:101120007F0190918001A0918101B091820101968F
:10113000A11DB11D80937F0190938001A093810137
:10114000B0938201BF91AF919F918F913F912F9169
:101150000F900FBE0F901F9018952FB7F8946091C5
:101160007B0170917C0180917D0190917E012FBF68
:101170000895789480B7806880BF80B7806480BF0E
:101180008CB580648CBD8FEF8DBD80B7807F87600C
:1011900080BF89B7846089BF8ADF86B1876086B9DE
:1011A000379A0895CF93DF9390E0FC01E45EFE4F01
:1011B0002491FC01EE5DFE4F8491882339F190E08B
:1011C000FC01E65DFE4FA491B0E0FC01E85DFE4F3E
:1011D0008491611106C09FB7F8948C912095822369
:1011E00013C0623069F4C82FD0E09FB7F8948C9197
:1011F000322F309583238C938881822B888305C07E
:101200009FB7F8948C91822B8C939FBFDF91CF91E5
:101210000895A82FB0E0FD01E45EFE4F9491FD011A
:10122000EE5DFE4FE491EE2311F1811103C08AB50A
:101230008F7304C0813021F48AB58F7C8ABD05C0CC
:10124000843019F48CB58F7C8CBDF0E0E85DFE4FE6
:10125000A491B0E02FB7611105C0F8948C919095DE
:10126000892303C0F8948C91892B8C932FBF089508
:10127000EE0FFF1F0590F491E02D0994F894FFCF35
:101280000000B9018000FF5A6368726F6D650068E5
:10129000747470733A2F2F6D61696C2E676F6F676E
:1012A0006C652E636F6D2F0068747470733A2F2F06
:1012B000636861746770742E636F6D2F0068747457
:1012C00070733A2F2F7777772E70726F6772616D18
:1012D000697A2E636F6D2F707974686F6E2D7072DE
:1012E0006F6772616D6D696E672F6F6E6C696E6589
:1012F0002D636F6D70696C65722F00687474707304
:101300003A2F2F6F70656E6C6962726172792E6F01
:0E13100072672F0000000000230315082D084F
:00000001FF
